{
  "_format": "hh-sol-artifact-1",
  "contractName": "SeismicQuiz",
  "sourceName": "contracts/SeismicQuiz.sol",
  "abi": [
    {
      "inputs": [],
      "stateMutability": "payable",
      "type": "constructor"
    },
    {
      "anonymous": false,
      "inputs": [
        {
          "indexed": true,
          "internalType": "address",
          "name": "player",
          "type": "address"
        },
        {
          "indexed": false,
          "internalType": "uint256",
          "name": "amount",
          "type": "uint256"
        },
        {
          "indexed": false,
          "internalType": "uint256",
          "name": "timestamp",
          "type": "uint256"
        }
      ],
      "name": "FaucetDrip",
      "type": "event"
    },
    {
      "anonymous": false,
      "inputs": [
        {
          "indexed": true,
          "internalType": "address",
          "name": "funder",
          "type": "address"
        },
        {
          "indexed": false,
          "internalType": "uint256",
          "name": "amount",
          "type": "uint256"
        }
      ],
      "name": "FaucetFunded",
      "type": "event"
    },
    {
      "anonymous": false,
      "inputs": [
        {
          "indexed": true,
          "internalType": "address",
          "name": "player",
          "type": "address"
        },
        {
          "indexed": false,
          "internalType": "uint256",
          "name": "timestamp",
          "type": "uint256"
        }
      ],
      "name": "FirstTimer",
      "type": "event"
    },
    {
      "anonymous": false,
      "inputs": [
        {
          "indexed": true,
          "internalType": "address",
          "name": "player",
          "type": "address"
        },
        {
          "indexed": false,
          "internalType": "uint256",
          "name": "timestamp",
          "type": "uint256"
        }
      ],
      "name": "PerfectScore",
      "type": "event"
    },
    {
      "anonymous": false,
      "inputs": [
        {
          "indexed": true,
          "internalType": "address",
          "name": "player",
          "type": "address"
        },
        {
          "indexed": false,
          "internalType": "uint8",
          "name": "score",
          "type": "uint8"
        },
        {
          "indexed": false,
          "internalType": "bool",
          "name": "passed",
          "type": "bool"
        },
        {
          "indexed": false,
          "internalType": "uint256",
          "name": "timestamp",
          "type": "uint256"
        }
      ],
      "name": "QuizSubmitted",
      "type": "event"
    },
    {
      "inputs": [],
      "name": "DRIP_AMOUNT",
      "outputs": [
        {
          "internalType": "uint256",
          "name": "",
          "type": "uint256"
        }
      ],
      "stateMutability": "view",
      "type": "function"
    },
    {
      "inputs": [],
      "name": "MAX_SCORE",
      "outputs": [
        {
          "internalType": "uint8",
          "name": "",
          "type": "uint8"
        }
      ],
      "stateMutability": "view",
      "type": "function"
    },
    {
      "inputs": [],
      "name": "MIN_BALANCE",
      "outputs": [
        {
          "internalType": "uint256",
          "name": "",
          "type": "uint256"
        }
      ],
      "stateMutability": "view",
      "type": "function"
    },
    {
      "inputs": [
        {
          "internalType": "address",
          "name": "player",
          "type": "address"
        }
      ],
      "name": "canClaimDrip",
      "outputs": [
        {
          "internalType": "bool",
          "name": "",
          "type": "bool"
        }
      ],
      "stateMutability": "view",
      "type": "function"
    },
    {
      "inputs": [],
      "name": "faucetBalance",
      "outputs": [
        {
          "internalType": "uint256",
          "name": "",
          "type": "uint256"
        }
      ],
      "stateMutability": "view",
      "type": "function"
    },
    {
      "inputs": [
        {
          "internalType": "uint256",
          "name": "limit",
          "type": "uint256"
        }
      ],
      "name": "getLeaderboard",
      "outputs": [
        {
          "internalType": "address[]",
          "name": "addrs",
          "type": "address[]"
        },
        {
          "internalType": "uint8[]",
          "name": "scores",
          "type": "uint8[]"
        },
        {
          "internalType": "bool[]",
          "name": "passed",
          "type": "bool[]"
        }
      ],
      "stateMutability": "view",
      "type": "function"
    },
    {
      "inputs": [],
      "name": "getMySubmission",
      "outputs": [
        {
          "components": [
            {
              "internalType": "address",
              "name": "player",
              "type": "address"
            },
            {
              "internalType": "uint8",
              "name": "score",
              "type": "uint8"
            },
            {
              "internalType": "uint8",
              "name": "attempts",
              "type": "uint8"
            },
            {
              "internalType": "uint256",
              "name": "lastSubmitted",
              "type": "uint256"
            },
            {
              "internalType": "bool",
              "name": "passed",
              "type": "bool"
            }
          ],
          "internalType": "struct SeismicQuiz.Submission",
          "name": "",
          "type": "tuple"
        }
      ],
      "stateMutability": "view",
      "type": "function"
    },
    {
      "inputs": [],
      "name": "getStats",
      "outputs": [
        {
          "internalType": "uint256",
          "name": "participants",
          "type": "uint256"
        },
        {
          "internalType": "uint256",
          "name": "submissions_",
          "type": "uint256"
        },
        {
          "internalType": "uint256",
          "name": "drips",
          "type": "uint256"
        },
        {
          "internalType": "uint256",
          "name": "faucetBal",
          "type": "uint256"
        }
      ],
      "stateMutability": "view",
      "type": "function"
    },
    {
      "inputs": [
        {
          "internalType": "address",
          "name": "",
          "type": "address"
        }
      ],
      "name": "hasClaimed",
      "outputs": [
        {
          "internalType": "bool",
          "name": "",
          "type": "bool"
        }
      ],
      "stateMutability": "view",
      "type": "function"
    },
    {
      "inputs": [],
      "name": "owner",
      "outputs": [
        {
          "internalType": "address",
          "name": "",
          "type": "address"
        }
      ],
      "stateMutability": "view",
      "type": "function"
    },
    {
      "inputs": [
        {
          "internalType": "uint256",
          "name": "",
          "type": "uint256"
        }
      ],
      "name": "players",
      "outputs": [
        {
          "internalType": "address",
          "name": "",
          "type": "address"
        }
      ],
      "stateMutability": "view",
      "type": "function"
    },
    {
      "inputs": [],
      "name": "requestDrip",
      "outputs": [],
      "stateMutability": "nonpayable",
      "type": "function"
    },
    {
      "inputs": [
        {
          "internalType": "address",
          "name": "",
          "type": "address"
        }
      ],
      "name": "submissions",
      "outputs": [
        {
          "internalType": "address",
          "name": "player",
          "type": "address"
        },
        {
          "internalType": "uint8",
          "name": "score",
          "type": "uint8"
        },
        {
          "internalType": "uint8",
          "name": "attempts",
          "type": "uint8"
        },
        {
          "internalType": "uint256",
          "name": "lastSubmitted",
          "type": "uint256"
        },
        {
          "internalType": "bool",
          "name": "passed",
          "type": "bool"
        }
      ],
      "stateMutability": "view",
      "type": "function"
    },
    {
      "inputs": [
        {
          "internalType": "uint8",
          "name": "score",
          "type": "uint8"
        }
      ],
      "name": "submitQuiz",
      "outputs": [],
      "stateMutability": "nonpayable",
      "type": "function"
    },
    {
      "inputs": [],
      "name": "totalDrips",
      "outputs": [
        {
          "internalType": "uint256",
          "name": "",
          "type": "uint256"
        }
      ],
      "stateMutability": "view",
      "type": "function"
    },
    {
      "inputs": [],
      "name": "totalParticipants",
      "outputs": [
        {
          "internalType": "uint256",
          "name": "",
          "type": "uint256"
        }
      ],
      "stateMutability": "view",
      "type": "function"
    },
    {
      "inputs": [],
      "name": "totalSubmissions",
      "outputs": [
        {
          "internalType": "uint256",
          "name": "",
          "type": "uint256"
        }
      ],
      "stateMutability": "view",
      "type": "function"
    },
    {
      "inputs": [
        {
          "internalType": "address",
          "name": "newOwner",
          "type": "address"
        }
      ],
      "name": "transferOwnership",
      "outputs": [],
      "stateMutability": "nonpayable",
      "type": "function"
    },
    {
      "inputs": [
        {
          "internalType": "uint256",
          "name": "amount",
          "type": "uint256"
        }
      ],
      "name": "withdraw",
      "outputs": [],
      "stateMutability": "nonpayable",
      "type": "function"
    },
    {
      "stateMutability": "payable",
      "type": "receive"
    }
  ],
  "bytecode": "0x60806040526000805433610100026001600160a81b03199091161760061790556110088061002e6000396000f3fe6080604052600436106101185760003560e01c806389e14e16116100a0578063a67a729a11610064578063a67a729a14610492578063c59d4847146104b2578063e98890a7146104e9578063f2fde38b14610504578063f71d96cb1461052457600080fd5b806389e14e16146103615780638da5cb5b146103fa578063a26dbf2614610437578063a34b46fe1461044d578063a39540161461047c57600080fd5b806337b4f502116100e757806337b4f502146102bb578063434ab101146102d157806356621109146102e657806373b2e80e14610316578063867378c51461034657600080fd5b806305a1793d146101595780631720f5d21461025557806327ff6223146102725780632e1a7d4d1461029957600080fd5b366101545760405134815233907f7a5b46da290ee3d909b4070dcddb80b741e0365f2deb452791308c5c079fc5739060200160405180910390a2005b600080fd5b34801561016557600080fd5b506101fa6040805160a0810182526000808252602082018190529181018290526060810182905260808101919091525033600090815260016020818152604092839020835160a08101855281546001600160a01b038116825260ff600160a01b8204811694830194909452600160a81b9004831694810194909452918201546060840152600290910154161515608082015290565b60405161024c9190600060a08201905060018060a01b03835116825260ff602084015116602083015260ff60408401511660408301526060830151606083015260808301511515608083015292915050565b60405180910390f35b34801561026157600080fd5b50475b60405190815260200161024c565b34801561027e57600080fd5b50610287600a81565b60405160ff909116815260200161024c565b3480156102a557600080fd5b506102b96102b4366004610e1b565b610544565b005b3480156102c757600080fd5b5061026460065481565b3480156102dd57600080fd5b506102b9610670565b3480156102f257600080fd5b50610306610301366004610e34565b610859565b604051901515815260200161024c565b34801561032257600080fd5b50610306610331366004610e34565b60026020526000908152604090205460ff1681565b34801561035257600080fd5b50610264662386f26fc1000081565b34801561036d57600080fd5b506103bf61037c366004610e34565b60016020819052600091825260409091208054918101546002909101546001600160a01b0383169260ff600160a01b8204811693600160a81b9092048116921685565b604080516001600160a01b0396909616865260ff9485166020870152929093169184019190915260608301521515608082015260a00161024c565b34801561040657600080fd5b5060005461041f9061010090046001600160a01b031681565b6040516001600160a01b03909116815260200161024c565b34801561044357600080fd5b5061026460045481565b34801561045957600080fd5b5061046d610468366004610e1b565b6108ab565b60405161024c93929190610ea1565b34801561048857600080fd5b5061026460055481565b34801561049e57600080fd5b506102b96104ad366004610f3b565b610aab565b3480156104be57600080fd5b506004546005546006544760408051948552602085019390935291830152606082015260800161024c565b3480156104f557600080fd5b5061026466b1a2bc2ec5000081565b34801561051057600080fd5b506102b961051f366004610e34565b610d39565b34801561053057600080fd5b5061041f61053f366004610e1b565b610df1565b60005461010090046001600160a01b031633146105945760405162461bcd60e51b81526020600482015260096024820152682737ba1037bbb732b960b91b60448201526064015b60405180910390fd5b478111156105d35760405162461bcd60e51b815260206004820152600c60248201526b125b9cdd59999a58da595b9d60a21b604482015260640161058b565b600080546040516101009091046001600160a01b03169083908381818185875af1925050503d8060008114610624576040519150601f19603f3d011682016040523d82523d6000602084013e610629565b606091505b505090508061066c5760405162461bcd60e51b815260206004820152600f60248201526e15da5d1a191c985dc819985a5b1959608a1b604482015260640161058b565b5050565b3360009081526002602052604090205460ff16156106c95760405162461bcd60e51b8152602060048201526016602482015275105b1c9958591e4818db185a5b59590819985d58d95d60521b604482015260640161058b565b66b1a2bc2ec5000047101561070f5760405162461bcd60e51b815260206004820152600c60248201526b46617563657420656d70747960a01b604482015260640161058b565b662386f26fc1000033311061075b5760405162461bcd60e51b815260206004820152601260248201527110985b185b98d9481cdd59999a58da595b9d60721b604482015260640161058b565b336000908152600260205260408120805460ff19166001179055600680549161078383610f74565b9091555050604051600090339066b1a2bc2ec50000908381818185875af1925050503d80600081146107d1576040519150601f19603f3d011682016040523d82523d6000602084013e6107d6565b606091505b50509050806108155760405162461bcd60e51b815260206004820152600b60248201526a111c9a5c0819985a5b195960aa1b604482015260640161058b565b6040805166b1a2bc2ec50000815242602082015233917f8efbf40e7203a91ec528094186c3e06facf9e63f22e9fc53b399aa4a1d96bce1910160405180910390a250565b6001600160a01b03811660009081526002602052604081205460ff161580156108925750662386f26fc10000826001600160a01b031631105b80156108a5575066b1a2bc2ec500004710155b92915050565b6060806060600060038054905085106108c6576003546108c8565b845b90508067ffffffffffffffff8111156108e3576108e3610f8d565b60405190808252806020026020018201604052801561090c578160200160208202803683370190505b5093508067ffffffffffffffff81111561092857610928610f8d565b604051908082528060200260200182016040528015610951578160200160208202803683370190505b5092508067ffffffffffffffff81111561096d5761096d610f8d565b604051908082528060200260200182016040528015610996578160200160208202803683370190505b50915060005b81811015610aa2576000600382815481106109b9576109b9610fa3565b9060005260206000200160009054906101000a90046001600160a01b03169050808683815181106109ec576109ec610fa3565b6001600160a01b039283166020918202929092018101919091529082166000908152600190915260409020548551600160a01b90910460ff1690869084908110610a3857610a38610fa3565b60ff9283166020918202929092018101919091526001600160a01b0383166000908152600190915260409020600201548551911690859084908110610a7f57610a7f610fa3565b911515602092830291909101909101525080610a9a81610f74565b91505061099c565b50509193909250565b600a60ff82161115610af75760405162461bcd60e51b815260206004820152601560248201527453636f72652065786365656473206d6178696d756d60581b604482015260640161058b565b3360009081526001602052604081205490546001600160a01b03909116159060ff90811690831610158115610bb0576003805460018101825560009182527fc2575a0e9e593c00f959f8c92f12db2869c3395a3b0502d05e2516446f71f85b0180546001600160a01b031916331790556004805491610b7583610f74565b909155505060405142815233907fc694bc8770c75cab8397569cbb74da631eec7d58f484770111af25e40a3439eb9060200160405180910390a25b6040805160a08101825233815260ff8516602082015290810183610bfb5733600090815260016020819052604090912054610bf691600160a81b90910460ff1690610fb9565b610bfe565b60015b60ff90811682524260208084019190915284151560409384015233600090815260018083528482208651815494880151968801518616600160a81b0260ff60a81b1997909616600160a01b026001600160a81b03199095166001600160a01b03919091161793909317949094169290921781556060840151928101929092556080909201516002909101805491151560ff199092169190911790556005805491610ca783610f74565b90915550506040805160ff8516815282151560208201524281830152905133917f2dda12fc162fa94d7973007097ef944bc7e30986b5e420096b241e838990010d919081900360600190a260091960ff841601610d345760405142815233907f8e5c70e32fdfb7e588f0955c39a8a6e6ea76de90aa24e107cad268150a5ad1b39060200160405180910390a25b505050565b60005461010090046001600160a01b03163314610d845760405162461bcd60e51b81526020600482015260096024820152682737ba1037bbb732b960b91b604482015260640161058b565b6001600160a01b038116610dc95760405162461bcd60e51b815260206004820152600c60248201526b5a65726f206164647265737360a01b604482015260640161058b565b600080546001600160a01b0390921661010002610100600160a81b0319909216919091179055565b60038181548110610e0157600080fd5b6000918252602090912001546001600160a01b0316905081565b600060208284031215610e2d57600080fd5b5035919050565b600060208284031215610e4657600080fd5b81356001600160a01b0381168114610e5d57600080fd5b9392505050565b600081518084526020808501945080840160005b83811015610e96578151151587529582019590820190600101610e78565b509495945050505050565b606080825284519082018190526000906020906080840190828801845b82811015610ee35781516001600160a01b031684529284019290840190600101610ebe565b5050508381038285015285518082528683019183019060005b81811015610f1b57835160ff1683529284019291840191600101610efc565b50508481036040860152610f2f8187610e64565b98975050505050505050565b600060208284031215610f4d57600080fd5b813560ff81168114610e5d57600080fd5b634e487b7160e01b600052601160045260246000fd5b600060018201610f8657610f86610f5e565b5060010190565b634e487b7160e01b600052604160045260246000fd5b634e487b7160e01b600052603260045260246000fd5b60ff81811683821601908111156108a5576108a5610f5e56fea264697066735822122011162d6ed0ad3e0bcd4abcb36d9cd77f8251f4f94979d5f88d1807ae4c43e34264736f6c63430008140033",
  "linkReferences": {},
  "deployedLinkReferences": {}
}